:1000000000308A00D42B0000FF00030E8301A600FD
:100010007F08A5000A08AD008A01A50E0408A70004
:100020002008A8002108A9002208AA002308AB0084
:100030002408AC00831383128C308400801E222895
:100040008C1A3528270884002808A0002908A10058
:100050002A08A2002B08A3002C08A4002D088A005F
:10006000260E8300FF0E7F0E09008A1162280A10F7
:100070008A100A1182076534723472346F34723414
:1000800000348C1E41281A08E20062080C1E462823
:1000900099006208393C031C522830306202A100EA
:1000A000612861286208603C03185D2862087A3C78
:1000B000031C5D286208DF395E286208BF3E0A3EE5
:1000C000A100003441202108E10041202108E00086
:1000D000DD3C031D6F286108A10076287628610E9B
:1000E000A000F030A00520086007A1002108DF0073
:1000F000BE08031D822833303D0784005F0880005E
:10010000BD0A88285F080F3C031D88280F30BF00F8
:100110008C128A112228C7014708043C031C962828
:100120003330470784008001C70A8C2800344D080B
:10013000FE3E0318B728023EB828C01040088316B8
:1001400087008312871040114008831687008312AE
:100150000711B7284011400883168700831207153E
:10016000C01040088316870083128714B728003414
:100170000A108A100A1182079D28AA280830A100B7
:1001800000000430A000A00BC32806108316061040
:1001900006308312A000A00BCB28DC0D8610031CB8
:1001A000D4288316861483120318D9288316861040
:1001B0008312831606148312061CDC28A10BC028A8
:1001C0000430A000A00BE2280610831606100000E1
:1001D000861406308312A000A00BEC280630A00085
:1001E000A00BF028831606148312061CF528A10123
:1001F0000630A000A00BFA288618211406108316DA
:1002000006108312861083168610831200345C3029
:1002100084000008031919290630A100A001A00BD1
:100220000F29A10B0E297B30A000A00B1529800BF4
:100230000C2900348316861404308312A000A00B0E
:100240001F298316061406308312A000A00B26294E
:1002500086108316861004308312A000A00B2E296E
:1002600006108316061083125908DC00BE205A08B7
:10027000DC00BE205B08DC00BE2083168610000078
:1002800006148312061C42290430A000A00B462944
:100290000000000000008316861404308312A000C2
:1002A000A00B50290130DC00072100340830DD00AC
:1002B0002008DE008316861406308312A000A00BEF
:1002C0005F29831606148312061C642986180314FA
:1002D000861C0310A10D0430A000A00B6D2983160D
:1002E000061083120610DD0B5A2983168614063079
:1002F0008312A000A00B7A2986105E0803198329B7
:100300008316861083120000831606148312061CBF
:1003100087290430A000A00B8B2906108316061035
:1003200006308312A000A00B932986108316861036
:1003300083128A11DD2901305807DB0083168614E9
:1003400004308312A000A00BA329831606140630E4
:100350008312A000A00BAA298610831686100430F1
:100360008312A000A00BB229061083160610831278
:100370005808DC00BE205908DC00BE208316861415
:1003800004308312A000A00BC32983160614063084
:100390008312A000A00BCA29861083168610043091
:1003A0008312A000A00BD229061083160610831218
:1003B0005B08DC00BE20A00156292108DA00831664
:1003C0008610000006148312061CE4290430A000E5
:1003D000A00BE829000000000000831686140430FA
:1003E0008312A000A00BF2290130DC0007215A087B
:1003F000A10000345008D9000130DA005308DB00B6
:100400001A215008D9000230DA005208DB001A2104
:100410005008D900DA015108DB001A2100344D08D8
:10042000D800D9019B212108CF0001304F02FE3EA8
:100430000318302A023E3B2A4D08D0000230D1007A
:100440000130D200FF30D300FA21302A4D08D0000D
:100450000130D1000130D200FF30D300FA21302A20
:100460004E08DC0007214D08D000D101D201D30194
:10047000FA218A11A82A0A108A140A1182071C2A52
:10048000262ACE1B542A0F30A0004D0EA0050A309C
:10049000200203184E2A3030A007502A4E08A00729
:1004A00020080C1E512A99000F30CD050A304D024C
:1004B00003185C2A30305E2ACE134E08CD074D0853
:1004C0000C1E602A99000034A030D9005708DA00C9
:1004D0005808DB001A2100340A30D9005708DA0026
:1004E0005808DB001A210034A030D8005608D90083
:1004F0009B212108D7005708A10000340A30D800FA
:100500005608D9009B212108D7005708A1000034C4
:100510004708A000A03020020319A32AA13020021E
:100520000319A92AA23020020319B12AA3302002FC
:100530000319D02A5D3020020319B52BFF302002A9
:100540000319BF2BC32B4808CD001E30CE000F2A45
:10055000D22B4808D9004908DA004A08DB001A21E2
:10056000D22B4808D8004908D9009B212108CC008B
:100570004808CD005730CE00412220300C1EBE2A44
:1005800099004908CD005730CE00412220300C1E82
:10059000C72A99004C08CD005730CE004122D22BFB
:1005A0004808CD004908CE004A08CF004B08D000CB
:1005B000CF080319DC2ADF2AD0080319442B4F087F
:1005C000D1005008D200D301D40151088039D500A0
:1005D0000330D7005208D800642251087F39D60072
:1005E0000430D7005608D80064220330D7005208E0
:1005F000D8006C2251087F39D6000430D700560845
:10060000D8006C220530D700F030D80064220530C5
:10061000D700F030D8006C22D508031D182BD70165
:100620000130D8006422D7010230D8006C22202B80
:10063000D7010230D8006422D7010130D8006C22E3
:10064000530F252B540F252B342B3F080F3C031938
:10065000342B0530D60074222108D3000530D60093
:100660007E222108D400202BD701D8016422D70193
:10067000D8016C220530D7000F30D8006422053035
:10068000D7000F30D8006C22CD080319482B4B2B14
:10069000CE080319B42B3F080F3C0319B42B4D08A7
:1006A000D1004E08D200D301D40151088039D500C1
:1006B0000330D7005208D800642251087F39D60091
:1006C0000430D7005608D80064220330D7005208FF
:1006D000D8006C2251087F39D6000430D700560864
:1006E000D8006C220530D700F030D80064220530E5
:1006F000D700F030D8006C22D508031D882BD70115
:100700000230D8006422D7010230D8006C22902B2E
:10071000D7010130D8006422D7010130D8006C2203
:10072000530F952B540F952BA42B3F080F3C031907
:10073000A42B0530D60074222108D3000530D60042
:100740007E222108D400902B0530D7000F30D8002E
:1007500064220530D7000F30D8006C22D701D801B1
:100760006422D701D8016C22D22B4808D000490856
:10077000D1004A08D2004B08D300FA21D22B4B08F3
:10078000CD009720D22BCD014D083720CD0AA000F7
:100790000C1EC82B990005304D02031DC42B0130DF
:1007A000DC0007218A11262C84011F3083050730C5
:1007B00083169F008312AE010130AF00B001B1017A
:1007C000B201403083169900263098009030831291
:1007D0009800FF30C000C1014108043C031CF62B07
:1007E0004230410784008001C10AEC2BBE01F03089
:1007F000BF00BD018B20CD019720A030D900DA01C8
:10080000DB011A210A30D900DA01DB011A21831633
:100810008C16C03083128B0483169F0183121F082D
:100820003839C1389F00F030BF003D08053C031D3A
:100830005B2C0130BE003308C7003408C8003508FF
:10084000C9003608CA003708CB00882AC101410810
:10085000043C031C392C42304107C70033304107A8
:1008600084000008C8004708840048088000C10AC6
:10087000272C3F080F3C031D3F2CF030BF00BD016B
:100880008B20BE014208CD005730CE0041224308E4
:10089000CD005730CE0041224408CD005730CE0065
:1008A00041224508CD005730CE0041224608CD00F8
:0A08B0005730CE004122132C6300E4
:021E00000034AC
:02400E00FE3F73
:00000001FF
;PIC16F874A
