:1000000000308A00E7280000FF00030E8301A600ED
:100010007F08A5000A08AD008A01A50E0408A70004
:100020002008A8002108A9002208AA002308AB0084
:100030002408AC00831383128C308400801D222896
:100040008C193528270884002808A0002908A10059
:100050002A08A2002B08A3002C08A4002D088A005F
:10006000260E8300FF0E7F0E09008A11372800300C
:10007000831614180130003A0319402883125628B9
:1000800083122F08023C031D5528313030078400AD
:100090000008D0005008930014168C118316141C0D
:1000A000532883124E288312AF0175288316141823
:1000B0005B288312562883121308CF00AF08031D54
:1000C00064280130AF0075282F0B6B284F08B00053
:1000D0000230AF0075282F08023C031D752831300F
:1000E000300784004F088000AF018C118A1122284C
:1000F0004C08CE00CD014D084B04A0004E08A300D3
:100100002008A1002308A20000344B08FC3E03187D
:10011000BF28043EC028AE102E0883168700831225
:1001200087102E102E088316870083120710BF2811
:100130002E102E088316870083120710AE102E088B
:100140008316870083128714BF282E102E0883166B
:10015000870083120714AE102E08831687008312BF
:100160008710BF28AE102E088316870083128714CD
:100170002E102E088316870083120714BF28003420
:100180000A108A100A1182078B289828A528B228FD
:100190004B30840000080319DA280630A100A001C2
:1001A000A00BD028A10BCF287B30A000A00BD62815
:1001B000800BCD288A117429FF30831685008312A5
:1001C00005080139CB004B08A1008A118E29840152
:1001D0001F308305073083169F004030990026307A
:1001E0009800903083129800FF30AE00AE152E08B4
:1001F0008316870083122E162E08831687000A3076
:100200009300363083129400C401C301C801C701B2
:10021000CA01C901AF01B001C20142080F3C031C71
:1002200017293130420784008001C20A0D29C030ED
:100230008B0483168C1583122E112E0883168700CB
:10024000831207110C3097000030A100063892008D
:100250003E30831692008312B101FF30B2000130AC
:10026000B300B401B501B6013208CB003308CC00AD
:1002700078202208C4002108C3004408A2004308D3
:10028000A100A20CA10CA20CA10CA20C21089500AB
:10029000A20C220C3039A0001708CF392004970097
:1002A000CB0185203208CB003308CC00782022080F
:1002B000C4002108C3004408A2004308A100A20C06
:1002C000A10CA20CA10CA20C21089500A20C220CDE
:1002D0003039A0001708CF39200497003108CB002F
:1002E00085200130CB00C8283608F03C031DCB29FF
:1002F0003408CB003508CC0078202208CA00210839
:10030000C900C601C50146084A02031CC729031DCE
:100310008D29490845020318C729DC282108C10096
:10032000FF30831685008312050801394102031D41
:10033000A2293108CB00852036080F3C031DA129D6
:10034000A22990293208CB003308CC00782022085B
:10035000C4002108C3004408A2004308A100A20C65
:10036000A10CA20CA10CA20C21089500A20C220C3D
:100370003039A0001708CF392004970036080F3C09
:10038000031DC329C729C50A0319C60A8329B40155
:0A039000B501FF30B60052296300EA
:021E00000034AC
:02400E00FA3F77
:00000001FF
;PIC16F874A
